:020000042001D9
:1000000005020120050201201D0301201F0301201C
:1000100023030120270301202B03012000000000FF
:100020000000000000000000000000002F0301207D
:1000300031030120000000003303012035030120BB
:10004000CF070120CF070120CF070120CF070120D4
:10005000CF070120CF070120CF070120CF070120C4
:10006000CF070120CF070120CF070120CF070120B4
:10007000CF070120CF070120CF070120CF070120A4
:10008000CF070120CF070120CF070120CF07012094
:10009000CF070120CF070120CF070120CF07012084
:1000A000CF070120CF070120CF070120CF07012074
:1000B000CF070120CF070120CF070120CF07012064
:1000C000CF070120CF070120CF070120CF07012054
:1000D000CF07012029070120CF070120CF070120EA
:1000E000CF070120CF070120CF070120CF07012034
:1000F000CF070120CF070120CF070120CF07012024
:10010000CF070120CF070120CF070120CF07012013
:10011000CF070120CF070120CF070120CF07012003
:10012000CF070120CF070120CF070120CF070120F3
:10013000CF070120CF070120CF070120CF070120E3
:10014000CF070120CF070120CF070120CF070120D3
:10015000CF070120CF070120CF070120CF070120C3
:10016000CF070120CF070120CF070120CF070120B3
:10017000CF070120CF070120CF070120CF070120A3
:10018000CF070120CF070120632901F0CB83002096
:100190007047000040BA7047C0BA704740BA704715
:1001A000C0BA704740BA7047C0BA704740BA70478B
:1001B000C0BA704740BA7047C0BA704740BA70477B
:1001C000C0BA704730BF72B6704762B6704780F3EE
:1001D0000888704740BA7047C0BA704740BA704745
:1001E000C0BA704740BA7047C0BA704740BA70474B
:1001F000C0BA704740BA7047C0BA704740BA70473B
:10020000C0BA704710B52DED028B88B04FF00604D0
:100210004FF0807008EE100A4FF0A80000F094F93B
:1002200028482949086029482949086029482A4955
:1002300008602A482A490860254800688047192232
:10024000284929A0264B1B6898471922254901A84F
:10025000214B1B6898472AA001F0ECFA4FF00004EC
:1002600007E001A8015D2AA001F0E4FA04F1010011
:10027000C4B2192CF5D327A001F0DCFA18E012481B
:10028000006880474021244800F055FC8021224826
:1002900000F051FCC82000F0BAF940211E4800F0DF
:1002A0004CFC80211C4800F048FCC82000F0AFF94D
:1002B0002000A4F10101CCB2E1D108B0BDEC028B69
:1002C00010BD000071070008002801205B0A00082B
:1002D00004280120410B0008082801209D0C00087B
:1002E0000C28012000D8FF0031323334353637383E
:1002F00039304142444553574546484A550000006D
:1003000077323561207265616420646174613A00FE
:10031000256320000D0A000000000240704700BF66
:10032000FEE700BFFEE700BFFEE700BFFEE7704745
:1003300070477047704700004FF000010846714A4F
:10034000126842F480326F4B1A6000BF6D4A126827
:1003500002F4003001F1010110B9B1F5A04FF5D15F
:10036000684A126812F4003F02D04FF0010001E029
:100370004FF0000001283FD1634A126842F08052DA
:10038000614B1A60614A126842F440425F4B1A6046
:100390005F4A12685E4B1A601A46126842F40042C5
:1003A0001A601A46126842F4A0521A60594AA3F120
:1003B00004031A60534A126842F08072514B1A606B
:1003C00000BF504A126812F0007FFAD040F2057266
:1003D000514B1A604E4A126822F003024C4B1A60CD
:1003E0001A46126842F002021A6000BF484A1268B8
:1003F00002F00C02082AF9D1704710B5474800688E
:1004000040F47000454908603E48006840F0010033
:100410003C4908604FF000003D49086039480068D9
:100420003F4900EA0100374908603E4801F10401F4
:1004300008603448006820F48020324908604FF09A
:10044000000039490860FFF777FF4FF00060374937
:10045000086010BD30B54FF0000002464FF00203B7
:1004600084464FF002012A4C246804F00C0020B1AD
:10047000042806D0082833D107E02D4C2D4D2C60E0
:1004800032E02D4C2B4D2C602EE02C4C2468C4F314
:10049000805C2A4C246804F03F01BCF1000F09D0B5
:1004A000254CB4FBF1F4254D2D68C5F3881504FBEC
:1004B00005F208E01E4CB4FBF1F4204D2D68C5F3A5
:1004C000881504FB05F21D4C2468C4F3014404F1B3
:1004D00001044FEA4403B2FBF3F4164D2C6003E031
:1004E000134C144D2C6000BF00BF094C2468C4F3AA
:1004F0000314134D285D0F4C246824FA00F40D4DAD
:100500002C6030BD0038024040380240007000408E
:100510000838024008544007003C024088ED00E0E3
:10052000FFFFF6FE103000240C38024008ED00E01A
:100530000024F4001028012000127A000438024040
:10054000142801207047000010B504466FF0040025
:1005500000F0AFF94FEAE47104EB51714FEAE101A9
:10056000394A1170104600784FF47A7110FB01F08F
:100570003649088010BD0146334A127801FB02F269
:100580004FF0E0235A614FF000029A611A46126957
:1005900042F001021A6100BF4FF0E022106910F032
:1005A000010F02D010F4803FF6D04FF0E022126924
:1005B00022F001024FF0E0231A614FF000029A612D
:1005C00070470146214A128801FB02F24FF0E023F6
:1005D0005A614FF000029A611A46126942F0010214
:1005E0001A6100BF4FF0E022106910F0010F02D035
:1005F00010F4803FF6D04FF0E022126922F00102A1
:100600004FF0E0231A614FF000029A61704770B515
:1006100004464FF4077094FBF0F0C6B24FF4077035
:1006200094FBF0F100FB114085B206E04FF4077037
:10063000FFF7C7FFA6F10100C6B2002EF6D115B133
:100640002846FFF7BEFF70BD242801202628012080
:10065000014600BF704700BF534A128812F0400F96
:10066000FAD0C2B2504B9A80704710B588B0044699
:100670004FF00101084600F096FC0121102000F027
:1006800000FD07220921494800F065FA07220A21E6
:10069000464800F060FA4FF4C06006904FF0020048
:1006A0008DF81C008DF81D004FF000008DF81E0025
:1006B0004FF001008DF81F0006A93C4800F0A2F998
:1006C00002944FF00000ADF80C00ADF80E00ADF84C
:1006D0001000ADF814004FF00C00ADF8120002A9A4
:1006E000314800F094FE01212F4800F033FF4021F3
:1006F0002D4801F049F8012240F225512A4800F026
:10070000F6FF4FF025008DF804004FF003008DF840
:1007100005008DF806004FF001008DF8070001A8D4
:1007200000F06CF808B010BD10B540F225511E481D
:1007300001F034F818B31C4800F03EFFC4B21C4866
:10074000008810F4004F2ED11948008810F4804F13
:100750000DD00A2C04D04FF000001549088022E08B
:100760001348008840F40040114908801BE00D2C1C
:1007700006D10F48008840F480400D49088012E0FF
:100780000B480088C0F30D000A490C540848008843
:1007900000F101000649088008460088C72802DDEC
:1007A0004FF00000088010BD001001400000024022
:1007B000282801204028012008488047FEE7FEE75E
:1007C000FEE7FEE7FEE7FEE7FEE7FEE7FEE7FEE701
:1007D00003480449044A054B704700000502012004
:1007E00008290120082F0120082B0120082B0120B7
:1007F0003A4940EA01013A4A1160704770B54FF03A
:1008000000010B464FF00F02C4786CB3344C2468DF
:1008100004F4E064C4F5E064C4F30721C1F1040406
:10082000E3B242FA01F2447804FA03F4E1B28478C4
:1008300004EA020444EA01014FEA01744FEA146138
:10084000284C05786155047804F01F054FF0010429
:1008500004FA05F405784FEA65154FF0E02606EB3B
:100860008505C5F800410CE0047804F01F054FF041
:10087000010404FA05F41C4D06784FEA661645F8A3
:10088000264070BD194A01EA020242EA0002184BF2
:100890001A60704731B1174A126842EA0002154BDC
:1008A0001A6005E0134A126822EA0002114B1A602E
:1008B0007047042808D14FF0E021096941F0040194
:1008C0004FF0E022116107E04FF0E021096921F0CB
:1008D00004014FF0E0221161704700000000FA05AA
:1008E0000CED00E000E400E080E100E080FFFF1F8D
:1008F00008ED00E010ED00E010B50446AD4884427C
:1009000008D10121084600F0CBFB0021012000F0B6
:10091000C7FB76E0A848844208D10121022000F0FC
:10092000BFFB0021022000F0BBFB6AE0A348844229
:1009300008D10121042000F0B3FB0021042000F0C5
:10094000AFFB5EE09E48844208D10121082000F000
:10095000A7FB0021082000F0A3FB52E09948844245
:1009600008D10121102000F09BFB0021102000F095
:1009700097FB46E09448844208D10121202000F0F2
:100980008FFB0021202000F08BFB3AE08F4884424F
:1009900008D10121402000F083FB0021402000F01D
:1009A0007FFB2EE08A48844208D10121802000F09C
:1009B00077FB0021802000F073FB22E08548844211
:1009C00008D10121801500F06BFB0021A01500F07B
:1009D00067FB16E08048844208D10121401500F0F1
:1009E0005FFB0021601500F05BFB0AE07B4884425E
:1009F00007D10121001500F053FB0021201500F064
:100A00004FFB10BD70B50A464FF000010B468C46F7
:100A100000BF59E04FF0010404FA01F3146804EA3E
:100A2000030C9C454ED104684FEA41064FF0030584
:100A300005FA06F524EA0504046014794FEA410535
:100A400004FA05F4056844EA050404601479012CED
:100A500002D01479022C22D184684FEA41064FF06B
:100A6000030505FA06F524EA0504846054794FEA83
:100A7000410504FA05F4856844EA05048460446885
:100A80004FF0010505FA01F524EA050444604468C5
:100A9000957905FA01F5ADB244EA05044460C468ED
:100AA0004FEA41064FF0030505FA06F524EA05046E
:100AB000C460D4794FEA410504FA05F4C56844EAF4
:100AC0000504C46001F101011029A3D370BD4FF6E4
:100AD000FF7101604FF00001017141718171C171BD
:100AE00070474FF4803242EA0102C261C161C261C3
:100AF000C269C269704702464FF0000013690B4299
:100B000002D04FF0010001E04FF0000070470146B5
:100B1000086980B2704702464FF0000053690B42EB
:100B200002D04FF0010001E04FF000007047014695
:100B3000486980B2704701837047418370470AB1AA
:100B4000018300E04183704741617047426982EA56
:100B500001024261704770B54FF000039C464FEAB6
:100B600041744FEAD46402FA04F34FEAE10500F15C
:100B7000200454F825404FEA41754FEAD5664FF0FE
:100B80000F0505FA06F524EA05044FEAE10600F12F
:100B9000200545F826404FEAE10500F1200454F80D
:100BA000254044EA030C4FEAE10500F1200444F833
:100BB00025C070BD00000240000402400008024051
:100BC000000C0240001002400014024000180240D5
:100BD000001C024000200240002402400028024085
:100BE000F848006840F00100F64908604FF0000046
:100BF000F5490860F3480068F44900EA0100F1494A
:100C00000860F34801F104010860F248F249086005
:100C1000F24801F104010860EA48006820F48020ED
:100C2000E84908604FF00000ED490860ED490860B0
:100C300070474FF00001EC4A117011460870704780
:100C400010B501464FF00002134610464FEA6112FC
:100C5000012A02D1DB4C236806E0022A02D1E34CD0
:100C6000236801E0E24C236801F01F024FF0010409
:100C700004FA02F41C4202D04FF0010001E04FF0F0
:100C8000000010BD70B54FF000042546264600BF99
:100C90003120FFF7D5FF064604F10104B4F5A04F5B
:100CA00001D0002EF4D03120FFF7CAFF10B14FF071
:100CB000010501E04FF00005284670BD01464FF0E8
:100CC0000000C04A106820F0F80040EAC10010603F
:100CD0007047C849086070474FF00001C34A11705F
:100CE0001170012802D004280AD104E04FF001015C
:100CF000BE4A117005E04FF00501BC4A117000E0DA
:100D000000BF00BF7047BC490860704730B5DDF8D0
:100D10000CC041EA82144FF00105C5EB530544EACB
:100D2000054444EA000444EA0C64B44D2C6030BD30
:100D3000B049086670474FEA801242EA0172A64B3A
:100D40001A607047AB498866704710B54FEA801348
:100D500043EA016343EA0273A94C236010BDA5492D
:100D600008677047A349C864704702464FF0000007
:100D7000954B186820F0EC6042EA010343EA00005A
:100D8000914B1860704702464FF000008E4B186878
:100D900020F0784042EA010343EA00008A4B1860E1
:100DA000704701464FF00000874A106820F00300AA
:100DB00040EA0100106070478348006800F00C00B2
:100DC000704701464FF000007F4A106820F0F000A5
:100DD00040EA01001060704701464FF000007A4A77
:100DE000106820F4E05040EA0100106070470146AE
:100DF0004FF00000744A106820F4604040EAC100DF
:100E000010607047F0B54FF000010A460C464FF0F5
:100E100002058C464FF002036B4E366806F00C015B
:100E200021B1042905D0082930D105E0754E0660AE
:100E30002FE0754E06602CE0704E3668C6F3805C7D
:100E40006E4E366806F03F03BCF1000F09D06E4EBF
:100E5000B6FBF3F6694F3F68C7F3881706FB07F444
:100E600008E0684EB6FBF3F6644F3F68C7F3881797
:100E700006FB07F4614E3668C6F3014606F101062B
:100E80004FEA4605B4FBF5F6066002E05D4E0660EB
:100E900000BF00BF4C4E366806F0F0014FEA11115A
:100EA0005A4E725C066826FA02F64660464E36686E
:100EB00006F4E0514FEA9121544E725C466826FADE
:100EC00002F68660404E366806F460414FEA5131C2
:100ED0004E4E725C466826FA02F6C660F0BD4FF0D0
:100EE000000100F44072B2F5407F0AD1364A116821
:100EF00021F4F811464A00EA020242EA0101324AAC
:100F000011603A4A1268C0F30B0342EA0302374BFE
:100F10001A6070473F49086070473F490860704752
:100F20003E490860704701464FF000002D4A1068A6
:100F300020F01F00A1F1010242EA0000294A1060DE
:100F4000704701464FF00000264A106820F4F85020
:100F5000A1F1010240EA0220224A106070470146D6
:100F60004FF000001F4A106820F4401040EA0100D2
:100F70001060704701464FF000001A4A106820F4D4
:100F8000400040EA01001060704701464FF0000049
:100F9000144A106820F4403040EA010010607047A5
:100FA0001F490860704731B11E4A126842EA0002C8
:100FB0001C4B1A6005E01B4A126822EA0002194B1A
:100FC0001A6070470038024008380240FFFFF6EA16
:100FD000103000240030002084380240003000240B
:100FE0000C3802408C38024002380240703802400F
:100FF0007438024000004742800E474204380240E5
:10100000883802400024F40000127A0030280120C1
:10101000FFFCFF0F3C0E4742400E47425C01474237
:10102000E01147423038024031B1854A126842EA45
:101030000002834B1A6005E0814A126822EA00022E
:101040007F4B1A60704731B17E4A126842EA000253
:101050007C4B1A6005E07B4A126822EA0002794B59
:101060001A60704731B1784A126842EA0002764B42
:101070001A6005E0744A126822EA0002724B1A6094
:10108000704731B1714A126842EA00026F4B1A6030
:1010900005E06E4A126822EA00026C4B1A60704743
:1010A00031B16B4A126842EA0002694B1A6005E0EE
:1010B000674A126822EA0002654B1A60704731B134
:1010C000644A126842EA0002624B1A6005E0614A13
:1010D000126822EA00025F4B1A60704731B15E4A23
:1010E000126842EA00025C4B1A6005E05A4A126834
:1010F00022EA0002584B1A60704731B1574A126811
:1011000042EA0002554B1A6005E0544A126822EA8E
:101110000002524B1A60704731B1514A126842EADC
:1011200000024F4B1A6005E04D4A126822EA0002A5
:101130004B4B1A60704731B14A4A126842EA0002CA
:10114000484B1A6005E0474A126822EA0002454B04
:101150001A60704731B1444A126842EA0002424BB9
:101160001A6005E0404A126822EA00023E4B1A600B
:10117000704731B13D4A126842EA00023B4B1A60A7
:1011800005E03A4A126822EA0002384B1A607047BA
:1011900031B1374A126842EA0002354B1A6005E065
:1011A000334A126822EA0002314B1A60704731B1AB
:1011B000304A126842EA00022E4B1A6005E02D4ABE
:1011C000126822EA00022B4B1A607047012806D1F0
:1011D0002949096841F00801274A116005E02649BC
:1011E000096821F00801244A1160704731B1234A8F
:1011F000127842EA0002214B1A7008E01F4A127866
:101200006FEA0003DBB202EA03021C4B1A7070475C
:101210001B48006840F0807019490860704701461B
:101220004FF00000174A12680A4202D04FF0010046
:1012300001E04FF00000704713490870704700004C
:1012400034380240383802404038024044380240C6
:10125000103802401438024018380240203802404A
:101260002438024050380240543802405838024076
:101270006038024064380240703802400D38024045
:10128000743802400C3802400E38024010B501217B
:101290008803FFF741FF00214FF48040FFF73CFF38
:1012A00010BD21490860704720490862704730B579
:1012B0004FF000024FEA81734FEA13744FF00F03AF
:1012C00003FA04F21A4B4FEAA10453F8243023EA3C
:1012D0000203174C4FEAA10544F8253023464FEA94
:1012E000A10453F824304FEA81744FEA147400FAD1
:1012F00004F443EA04030E4C4FEAA10544F82530F8
:1013000030BD0C49086070470B49086070474FF0CA
:1013100000000A49096811F4807F02D04FF00100F3
:1013200001E04FF000007047003801400000274204
:1013300008380140DC0027420004274220380140E1
:1013400010B50446F748844208D101211020FFF768
:10135000E3FE00211020FFF7DFFE57E0F248844251
:1013600009D101214804FFF7C8FE00214FF40030E5
:10137000FFF7C3FE4AE0ED48844209D10121880409
:10138000FFF7BBFE00214FF48020FFF7B6FE3DE0E3
:10139000E748844209D10121C804FFF7AEFE0021CD
:1013A0004FF40020FFF7A9FE30E0E248844209D163
:1013B00001210805FFF7A1FE00214FF48010FFF77F
:1013C0009CFE23E0DC48844208D101212020FFF765
:1013D000A3FE00212020FFF79FFE17E0D74884429C
:1013E00009D101218807FFF788FE00214FF08040D6
:1013F000FFF783FE0AE0D248844207D1012140056D
:10140000FFF77BFE00216005FFF777FE10BD2DE999
:10141000FF4705460E464FF00004A14600BFA04618
:10142000B08900B100BF2C8A24F44054F08840EA0F
:1014300004042C82AC8941F20C6024EA0004B088D8
:10144000318940EA0100718940EA010040EA040460
:10145000AC81AC8A24F44074B08940EA0404AC82C4
:101460006846FFF7CFFCAF48854202D0B2488542BC
:1014700002D1DDF80C9001E0DDF80890A88910F4A5
:10148000004F09D009EBC90000EB091031684FEAA1
:101490004101B0FBF1F708E009EBC90000EB0910CE
:1014A00031684FEA8101B0FBF1F74FF06400B7FB00
:1014B000F0F04FEA00144FEA14104FF0640101FB02
:1014C0001078A88910F4004F0AD04FF0320000EBDA
:1014D000C800B0FBF1F000F0070040EA04040BE0A4
:1014E0004FF0320000EB08104FF06401B0FBF1F058
:1014F00000F00F0040EA04042C81BDE8FF874FF4A0
:10150000165101604FF000018180C18001814FF0D0
:101510000C0141814FF000018181704710B50246F6
:101520004FF00000108A20F470600B884C8843EA6A
:1015300004038C8843EA0403CC8843EA040343EAA7
:101540000000108210BD4FF00001018041808180B9
:10155000C180704721B1828942F40052828105E046
:1015600082894DF6FF7302EA030282817047028B83
:1015700002F47F420283028B42EA01020283704737
:1015800021B1828942F40042828103E08289C2F360
:101590000E028281704721B1828A42F40062828207
:1015A00005E0828A4FF2FF7302EA030282827047EB
:1015B000C1F308028280704701468888C0F30800A2
:1015C0007047028A4FF6F07302EA03020282028A2F
:1015D00042EA01020282704721B1828942F002028E
:1015E000828105E082894FF6FD7302EA030282815F
:1015F000704782894FF2FF7302EA03028281828977
:1016000042EA010282817047028A4FF6DF7302EAE2
:1016100003020282028A42EA01020282704721B179
:10162000028A42F48042028205E0028A4BF6FF738E
:1016300002EA030202827047818941F0010181813F
:10164000704721B1828A42F00802828205E0828AD4
:101650004FF6F77302EA030282827047028BD2B21E
:101660000283028B42EA01220283704721B1828AFF
:1016700042F02002828205E0828A4FF6DF7302EA9E
:1016800003028282704721B1828A42F01002828274
:1016900005E0828A4FF6EF7302EA03028282704706
:1016A000828A4FF6FB7302EA03028282828A42EA4E
:1016B00001028282704721B1828A42F00202828254
:1016C00005E0828A4FF6FD7302EA030282827047C8
:1016D00010B522B1838A43EA0103838206E0838A3C
:1016E0006FEA0104A4B203EA0403838210BD70B55B
:1016F00003464FF00004A44625462046A1F5106697
:101700006A3E00D100BF1846C1F3421401F01F0C1D
:101710004FF0010606FA0CF5012C13D100F10C0074
:1017200017E0000000100140004400400048004065
:10173000004C004000500040001401400078004080
:10174000007C0040022C02D100F1100001E000F109
:10175000140022B1066846EA0506066003E0066842
:1017600026EA0506066070BD02464FF00000B1F59E
:10177000007F00D100BF13880B4202D04FF0010060
:1017800001E04FF00000704701F40072B2F5007FF5
:1017900000D100BF6FEA01020280704730B50246F7
:1017A0004FF0000423469C461846A1F510656A3D9B
:1017B00000D100BFC1F3421C01F01F034FF001052F
:1017C00005FA03F3BCF1010F03D1958905EA030380
:1017D00009E0BCF1020F03D1158A05EA030302E018
:1017E000958A05EA03034FEA21244FF0010505FA23
:1017F00004F4158805EA04041BB114B14FF001008C
:1018000001E04FF0000030BD10B54FF0000213466C
:10181000A1F510646A3C00D100BF4FEA21224FF0CD
:10182000010404FA02F4A3B26FEA0304048010BDB9
:10183000704700000FB4044910B503AA029800F0E5
:101840007DF810BC5DF814FB2C2801202DE9F04137
:1018500004460E4600200AE0E1682046884738B377
:10186000252806D0D4E901219047206A401C206237
:10187000F2E7E168204600278847050018D0A5F167
:101880004100192802D820354FF400673246294616
:1018900020462760FEF778FC40B1012804D0F61DF1
:1018A00026F007060836D7E7361DD5E72846D9E7DC
:1018B000206ABDE8F08170B505460C46012A05D0C6
:1018C0002868800600D5EA69002302E0012305E0CC
:1018D0005B1C934202D2E05C0028F9D1A869E618AB
:1018E000C01AA861286A184428622846AFF300800D
:1018F00004E0D5E9012114F8010B9047B442F8D374
:101900002846AFF3008070BD70477047704770473E
:1019100010B5436913B1AFF3008001E0FFF7CBFFCF
:10192000012010BD126800F124010A7000224A70E3
:101930000122EDE711684FF0FF32E9E7074B70B580
:101940000C467B4400F011F80546204600F020F8D4
:1019500010B14FF0FF3070BD284670BD11EDFFFF94
:1019600001694A1C02610878704700B58FB0CDE963
:1019700001310021059105497944CDE90310114653
:101980006846FFF763FF0FB000BD0000E5FFFFFFF3
:10199000C06800F080007047746573742072756EC3
:1019A0006E696E6720696F6120686565656F2034B8
:1019B0000000000000000000000000000000000027
:1019C00000000000007A030A000000000000000090
:1019D00001020304060708090000000000000000DF
:1019E00000000000000000000102030401020304E3
:0419F00006070809D5
:0400000500000000F7
:00000001FF
